:100000000C94B50B0C94E00B0C94E00B0C94E00BEF
:100010000C94E00B0C94E00B0C94E00B0C94E00BB4
:100020000C94E00B0C94E00B0C9412AA0C948BA88B
:100030000C94E00B0C94E00B0C94E00B0C94E00B94
:100040000C94E00B0C94AF140C94E00B0C94E00BAC
:100050000C94E00B0C94E00B0C9450510C9492A374
:100060000C94E00B0C94E00B0C94E00B0C94E00B64
:100070000C94E00B0C94E00B0C94E00B0C94E00B54
:100080000C94E00B0C94E00B0C94E00B0C94E00B44
:100090000C94BE9F0C94E00B084AD73B3BCE016EFC
:1000A00084BCBFFDC12F3D6C74319ABD56833DDACF
:1000B0003D00C77F11BED9E4BB4C3E916BAAAABEDE
:1000C000000000803F05A84CCDB2D44EB93836A907
:1000D000020C50B9918688083CA6AAAA2ABE000044
:1000E00000803F45313A200045303A20005A3A20FE
:1000F00000593A2000583A20004D53312C4D5332CC
:100100002050696E730A006563686F3A0028002901
:1001100020453A00280029205A3A00280029205971
:100120003A00280020583A005374657070657220B8
:1001300063757272656E742076616C756573205B91
:100140002528726177295D3A0024F404D9201BC464
:100150000C5C0E9804C4095F0265077101F405F98F
:1001600000FB04B30048048700C10369005803552D
:100170000003034500BE023A008402310053022A04
:10018000002902250004022000E4011C00C8011916
:1001900000AF0117009801140084011300710110D1
:1001A000006101100051010E0043010D0036010BEA
:1001B000002B010B0020010B00150109000C0109A7
:1001C0000003010800FB000800F3000800EB000733
:1001D00000E4000600DE000600D8000600D200069B
:1001E00000CC000500C7000500C2000500BD0004EA
:1001F00000B9000400B5000400B1000400AD000423
:1002000000A9000400A5000300A20003009F000451
:10021000009B000300980003009500020093000378
:1002200000900003008D0002008B00030088000294
:10023000008600020084000300810002007F0002AB
:10024000007D0002007B00020079000200770001BF
:1002500000760002007400020072000100710002CA
:10026000006F0002006D0001006C0002006A0001D6
:1002700000690002006700010066000100650001DE
:1002800000640002006200010061000100600001E2
:10029000005F0002005D0001005C0001005B0001E6
:1002A000005A0001005900010058000100570001E8
:1002B00000560001005500010054000100530000E9
:1002C00000530001005200010051000100500001E4
:1002D000004F0001004E0000004E0001004D0001E3
:1002E000004C0001004B0000004B0001004A0001DF
:1002F00000490001004800000048000100470001DB
:1003000000460000004600010045000000450001D5
:1003100000440001004300000043000100420000CF
:1003200000420001004100000041000100400001C6
:10033000003F0000003F0001003E0000003E0001C1
:10034000003D0000003D0001003C0000003C0000BA
:10035000003C0001003B0000003B0001003A0000AF
:10036000003A0001003900000039000100380000A7
:10037000003800000038000100370000003700019D
:100380000036000000360000003600010035000095
:10039000003500000035000100340000003400008A
:1003A000003400010033000000330000003300017E
:1003B0000032000000320000003200010031000075
:1003C000003100000031000100300000003000006A
:1003D00000300001002F0000002F0000002F00005F
:1003E000002F0001002E0000002E0000002E000152
:1003F000002D0000002D0000002D0000002D000148
:10040000002C0000002C0000002C0000002C00013B
:10041000002B0000002B0000002B0000002B00012F
:10042000002A0000002A0000002A0000002A000123
:100430000029000000290000002900000029000018
:10044000002900010028000000280000002800000A
:1004500000280000002800010027000000270000FD
:1004600000270000002700000027000100260000F0
:1004700000260000002600000026000000260001E3
:1004800000250000002500000025000000250000D8
:1004900000250000002500010024000000240000C9
:1004A00000240000002400000024000100230000BC
:1004B00000230000002300000023000000230000B0
:1004C00000230000002300010022000000220000A1
:1004D0000022000000220000002200000022000193
:1004E0000021000000210000002100000021000088
:1004F0000021000000210000002100010020000078
:10050000002000000020000000200000002000006B
:10051000002000000020000000200001001F00005B
:10052000001F0000001F0000001F0000001F00004F
:10053000001F0000001F0001001E0000001E000040
:10054000001E0000001E00000024F4D43050C38EB2
:1005500020C2A24017828B7011127A910D816CD942
:100560000AA861E108C7586607615143061E4B5D42
:1005700005C145A7041A411104093D980371393199
:10058000034036DB0265339102D4305402802E1DC5
:1005900002632CEE01752AC501B028A00110278145
:1005A000018F2564012B244B01E0223401AC211F73
:1005B000018D200D01801FFC00841EED00971DDFC2
:1005C00000B81CD200E61BC600201BBC00641AB297
:1005D00000B219A8000A19A0006A189900D1179151
:1005E0000040178B00B516840031167E00B31579D4
:1005F000003A157300C7146F0058146A00EE1366B2
:10060000008813630025135E00C7125B006C12574D
:100610000015125400C111510070114F0021114BEF
:1006200000D61049008D10470046104400021042C9
:1006300000C00F4000800F3E00420F3C00060F3B01
:1006400000CB0E3800930E37005C0E3500270E34B9
:1006500000F30D3200C10D3100900D3000600D2E01
:1006600000320D2D00050D2C00D90C2B00AE0C29ED
:1006700000850C29005C0C2700350C27000E0C2689
:1006800000E80B2400C40B2400A00B23007D0B23E7
:10069000005A0B2100390B2100180B2000F80A1F0B
:1006A00000D90A1E00BB0A1E009D0A1D00800A1DFB
:1006B00000630A1C00470A1B002C0A1B00110A1ABF
:1006C00000F7091A00DD091900C4091900AB09195E
:1006D00000920917007B091800630917004C0916DE
:1006E0000036091600200916000A091500F508153C
:1006F00000E0081400CC081400B8081400A4081482
:1007000000900813007D0812006B081300580812AF
:1007100000460812003408110023081100120811C5
:100720000001081100F0071000E0071000D00710CA
:1007300000C0071000B0070F00A107100091070EBE
:100740000083070F0074070F0065070E0057070EA0
:100750000049070E003B070D002E070E0020070D75
:100760000013070D0006070D00F9060C00ED060D3D
:1007700000E0060C00D4060C00C8060C00BC060CF9
:1007800000B0060C00A4060B0099060C008D060BA9
:100790000082060B0077060B006C060B0061060A50
:1007A0000057060B004C060A0042060A0038060AEB
:1007B000002E060A0024060A001A060A001006097E
:1007C0000007060A00FD050900F4050900EB05090C
:1007D00000E2050900D9050900D0050900C705098F
:1007E00000BE050900B5050800AD050800A505090E
:1007F000009C050800940508008C05080084050885
:10080000007C050800740508006C050700650508F4
:10081000005D050700560508004E0507004705075F
:10082000004005080038050700310507002A0507C4
:1008300000230507001C050600160507000F050725
:10084000000805060002050700FB040600F5040782
:1008500000EE040600E8040600E2040700DB0406DC
:1008600000D5040600CF040600C9040600C3040630
:1008700000BD040600B7040600B1040500AC040680
:1008800000A6040600A00405009B040600950405CC
:1008900000900406008A0405008504050080040613
:1008A000007A04050075040500700405006B04055A
:1008B0000066040500610405005C0405005704059A
:1008C00000520405004D04050048040500430405DA
:1008D000003E0404003A0405003504050030040419
:1008E000002C04050027040400230405001E040452
:1008F000001A04040016040500110404000D040489
:1009000000090405000404040000040400FC0304BE
:1009100000F8030400F4030400F0030400EC0304F3
:1009200000E8030400E4030400E0030400DC030423
:1009300000D8030400D4030400D0030400CC030453
:1009400000C8030300C503030020453A00205A3ABB
:100950000020593A0020583A00656E6473746F7035
:1009600073206869743A20006563686F3A004861D3
:100970007264636F6465642044656661756C74209D
:1009800053657474696E6773204C6F6164656400AD
:1009900053746F7265642073657474696E67732035
:1009A00072657472696576656400205A002059008A
:1009B00020204D3231322058004265642070726F21
:1009C0006265206F666673657420286D6D293A0034
:1009D000205A0020590020204D3231312058004D3E
:1009E000617820706F736974696F6E20286D6D294E
:1009F0003A00205A0020590020204D323130205832
:100A0000004D696E20706F736974696F6E20286D78
:100A10006D293A002044002049002020204D333029
:100A2000312050005049442073657474696E6773B7
:100A30003A00205A0020590020204D3230362058EC
:100A400000486F6D65206F666673657420286D6D54
:100A5000293A00204500205A00205800204200205A
:100A6000540020204D323035205300416476616EB1
:100A7000636564207661726961626C65733A2053C4
:100A80003D4D696E20666565647261746520286DF0
:100A90006D2F73292C20543D4D696E207472617640
:100AA000656C20666565647261746520286D6D2FC4
:100AB00073292C20423D6D696E696D756D207365DB
:100AC000676D656E742074696D6520286D73292CBF
:100AD00020583D6D6178696D756D205859206A65A3
:100AE000726B20286D6D2F73292C20205A3D6D616B
:100AF00078696D756D205A206A65726B20286D6D5E
:100B00002F73292C2020453D6D6178696D756D200E
:100B100045206A65726B20286D6D2F732900205463
:100B20000020204D323034205300416363656C65F2
:100B3000726174696F6E3A20533D616363656C65E1
:100B4000726174696F6E2C20543D726574726163BA
:100B50007420616363656C65726174696F6E0020F7
:100B60004500205A0020590020204D3230312058B5
:100B7000004D6178696D756D20416363656C6572C8
:100B80006174696F6E20286D6D2F7332293A0020D1
:100B90004500205A0020590020204D323033205883
:100BA000004D6178696D756D20666565647261746C
:100BB000657320286D6D2F73293A00204500205A57
:100BC0000020590020204D393220580053746570A0
:100BD000732070657220756E69743A005365747481
:100BE000696E67732053746F726564006563686F24
:100BF0003A0020746F6F206C6F6E67206578747296
:100C00007573696F6E2070726576656E74656400C9
:100C100020636F6C6420657874727573696F6E20E1
:100C200070726576656E746564004D3834205820A6
:100C300059205A2045006563686F3A0043616E6E23
:100C40006F7420656E746572207375626469723AA0
:100C500020004D3234004D3233202573006175740D
:100C60006F25692E67004572726F723A0065727265
:100C70006F722077726974696E6720746F2066697D
:100C80006C65004E6F74205344207072696E7469F5
:100C90006E67002F005344207072696E74696E672E
:100CA000206279746520002E0044656C6574696F5C
:100CB0006E206661696C65642C2046696C653A201B
:100CC0000046696C652064656C657465643A002E45
:100CD000006F70656E206661696C65642C204669E2
:100CE0006C653A200057726974696E6720746F20D2
:100CF00066696C653A20002E006F70656E20666133
:100D0000696C65642C2046696C653A20002E006F82
:100D100070656E206661696C65642C2046696C653F
:100D20003A200046696C652073656C656374656480
:100D3000002053697A653A200046696C65206F701F
:100D4000656E65643A20002E006F70656E206661E6
:100D5000696C65642C2046696C653A20004E6F779B
:100D60002066726573682066696C653A20004E6F74
:100D70007720646F696E672066696C653A2000228F
:100D800020706F73002220706172656E743A2200C9
:100D9000535542524F5554494E452043414C4C20E7
:100DA0007461726765743A2200747279696E6720A3
:100DB000746F2063616C6C207375622D67636F6460
:100DC000652066696C6573207769746820746F6F3D
:100DD000206D616E79206C6576656C732E204D41B7
:100DE00058206C6576656C2069733A005344206323
:100DF000617264206F6B006F70656E526F6F74204C
:100E00006661696C656400766F6C756D652E696EE0
:100E10006974206661696C656400534420696E6979
:100E200074206661696C004572726F723A00546595
:100E30006D70657261747572652068656174656452
:100E400020626564207377697463686564206F66E7
:100E5000662E204D415854454D5020747269676785
:100E600065726564202121003A20457874727564AA
:100E70006572207377697463686564206F66662E97
:100E8000204D494E54454D50207472696767657214
:100E900065642021003A204578747275646572207B
:100EA0007377697463686564206F66662E204D41B0
:100EB0005854454D502074726967676572656420A7
:100EC0002100202D20496E76616C6964206578745C
:100ED0007275646572206E756D62657220210010F6
:100EE00000AD0330016A0150022B0170030A01902A
:100EF00004F500B005E500D006D800F007CE0010DC
:100F000009C500300ABE00500BB700700CB100904C
:100F10000DAB00B00EA600D00FA200F0109D001087
:100F2000129900301395005014920070158E0090A5
:100F3000168B00B0178700D0188400F019810010BC
:100F40001B7E00301C7B00501D7900701E760090C7
:100F50001F7300B0207000D0216E00F0226B0010D3
:100F600024690030256600502663007027610090D8
:100F7000285E00B0295C00D02A5900F02B560010E2
:100F80002D5400302E5100502F4E0070304B0090E9
:100F9000314800B0324500D0334200F0343E0010FA
:100FA000363B00303737005038330070392E009010
:100FB0003A2900B03B2300D03C1B00F03D1100104B
:100FC0003F0100F03F0000504944204175746F74A8
:100FD000756E652066696E69736865642120507559
:100FE0007420746865204B702C204B6920616E64FE
:100FF000204B6420636F6E7374616E747320696E2E
:10100000746F20436F6E66696775726174696F6E85
:101010002E6800504944204175746F74756E6520C8
:101020006661696C6564212074696D656F75740013
:1010300020403A006F6B20543A006F6B20423A0018
:10104000504944204175746F74756E6520666169FE
:101050006C6564212054656D70657261747572658C
:1010600020746F6F206869676800204B643A200025
:10107000204B693A2000204B703A200020436C61DD
:101080007369632050494420002054753A200020A1
:101090004B753A2000206D61783A2000206D696E12
:1010A0003A200020643A200020626961733A2000EF
:1010B0001000C90210012C01400122017001180129
:1010C000B0010E01F00104015002FA00B002F0007C
:1010D0003003E600D003DC009004D2007005C800A5
:1010E000A006BE000008B400B009AA00D00BA00002
:1010F000600E960060118C000015820020197800A7
:10110000C01D6E00A0226400B0275A00902C500031
:1011100000314600E0343C0010383200903A28009C
:10112000603C1E00A03D1400803E0A00203F0000ED
:101130006563686F3A004572726F723A0050726967
:101140006E7465722073746F707065642064756569
:1011500020746F206572726F72732E20466978203A
:10116000746865206572726F7220616E6420757399
:1011700065204D39393920746F207265737461723E
:10118000742E202854656D706572617475726520C7
:1011900069732072657365742E20536574206974B9
:1011A0002061667465722072657374617274696E11
:1011B0006729005072696E7465722068616C74658D
:1011C000642E206B696C6C28292063616C6C6564EB
:1011D00021006F6B00526573656E643A2000220037
:1011E000556E6B6E6F776E20636F6D6D616E643AD6
:1011F0002022007A5F6D696E3A2000795F6D617818
:101200003A2000785F6D696E3A20005A3A00593AE8
:101210000020436F756E7420583A2000453A005AFA
:101220003A00593A00583A002053455249414C5F20
:101230004E554D4245523A2000204558545255448F
:1012400045525F434F554E543A2000204D4143488C
:10125000494E455F545950453A20002050524F5452
:101260004F434F4C5F56455253494F4E3A20002052
:101270004649524D574152455F55524C3A2000461F
:1012800049524D574152455F4E414D453A204D61BF
:10129000726C696E2056310020423A0020453A00B7
:1012A000543A0020573A0020453A00543A00204270
:1012B000403A0020403A00202F003A0020540020FD
:1012C0002F0020423A00202F006F6B20543A002557
:1012D00069206D696E2C2025692073656300456E59
:1012E000642066696C65206C697374004265676987
:1012F0006E2066696C65206C697374000A00205A60
:101300003A200020593A200042656420506F7369EA
:1013100074696F6E20583A20000A00207A3A200043
:1013200020793A200042656420783A20000A0020A3
:101330007A3A200020793A200042656420783A20E9
:10134000000A00207A3A200020793A2000426564A1
:1013500020783A20005A50726F6265204F7574737E
:101360006964652042656400486F6D6520582F5997
:10137000206265666F7265205A00FF01FF0000A0C1
:10138000400000A04000004040256920686F757251
:1013900073202569206D696E7574657300446F6EE6
:1013A00065207072696E74696E672066696C65008D
:1013B0005072696E7465722073746F70706564200A
:1013C00064756520746F206572726F72732E20468B
:1013D000697820746865206572726F7220616E642E
:1013E00020757365204D39393920746F207265730B
:1013F000746172742E202854656D70657261747505
:1014000072652069732072657365742E205365744C
:1014100020697420616674657220726573746172EC
:1014200074696E6729006F6B004E6F204C696E65A2
:10143000204E756D626572207769746820636865F7
:10144000636B73756D2C204C617374204C696E65F1
:101450003A20004E6F20436865636B73756D20778B
:10146000697468206C696E65206E756D6265722C9A
:10147000204C617374204C696E653A200063686586
:10148000636B73756D206D69736D617463682C2077
:101490004C617374204C696E653A20004C696E652E
:1014A000204E756D626572206973206E6F74204CDA
:1014B000617374204C696E65204E756D6265722B88
:1014C000312C204C617374204C696E653A20004DBC
:1014D00031313000446F6E6520736176696E67202C
:1014E00066696C652E006F6B004D3239002020500C
:1014F0006C616E6E6572427566666572427974657E
:10150000733A20002046726565204D656D6F7279D3
:101510003A20004A756C20203620323031380043A2
:101520006F6D70696C65643A20005072696E7472F8
:10153000626F7400207C20417574686F723A2000DD
:101540004A756C20203620323031382030303A3025
:10155000343A323200204C617374205570646174E7
:1015600065643A2000312E302E30004D61726C6976
:101570006E200020536F6674776172652052657328
:10158000657400205761746368646F6720526573E7
:101590006574002042726F776E206F7574205265FB
:1015A000736574002045787465726E616C205265B5
:1015B00073657400506F7765725570007374617253
:1015C00074002200656E717565696E6720220022C5
:1015D00000656E717565696E672022007C3C3E5E19
:1015E0002B3D3F2F5B5D3B2C2A225C000129022909
:1015F000042908291029202940298029012C022C9E
:1016000001260226042608261026202640268026AB
:10161000402C802C012302230423082310232023A1
:1016200040238023012002200420082010202020B5
:1016300040208020102C202C012F022F042F082F57
:10164000102F202F402F802F7EFE7EFD7EFB7EF709
:101650007EEF7EDF7EBF7E7F000100008C161200D1
:101660000200009E164300030000E1160401030976
:1016700004E5161802030904FF16160303090417EC
:10168000170C0001C10201803601813612010002EF
:1016900002000020C01683040001010203010902B8
:1016A0004300020100C032090400000102020100EF
:1016B000052400100105240100010424020605246C
:1016C0000600010705820308004009040100020A20
:1016D00000000007050302400000070584024000E7
:1016E000000403090418035400650065006E0073CC
:1016F0000079006400750069006E006F000000163C
:101700000355005300420020005300650072006939
:101710000061006C0000000C033100320033003423
:101720000035000000494E46494E4954594E414E3D
:10173000CDCCCC3D0AD7233C17B7D13877CC2B3250
:101740009595E6241FB14F0A000020410000C842D1
:1017500000401C4620BCBE4CCA1B0E5AAEC59D7430
:10176000C012B5653C9E44A6AE6511241FBECFEFE6
:10177000D0E2DEBFCDBF13E0A0E0B1E0EAEFFFE5CD
:1017800001E00BBF02C007900D92A03AB107D9F754
:101790001BBE11E1A0EAB3E001C01D92AF34B10756
:1017A000E1F717E1C8E6D7E104C02297FE010E94E5
:1017B000A2AFC036D107C9F70E945BA80C94F0AF66
:1017C0000C940000A0E0B0E0E8EEFBE00C94BFAFAA
:1017D000EC015B016115710519F0FB0191838083B8
:1017E000F9908F2D90E00E94A6AF892BC9F7FDE2FA
:1017F000FF1621F4F990EE24E39405C02BE2F216D3
:1018000009F4F990EE248E0101501040C80165E200
:1018100077E143E050E00E94780E892B01F58E01BC
:101820000E5F1F4FC80168E277E145E050E00E947B
:10183000780E892B19F48E01095F1F4FA114B10492
:1018400019F0F50111830083E0FC04C070E090E022
:1018500080E814C070E090E080E86FEF08C1C80134
:101860006DE277E143E050E00E94780E892B69F445
:10187000A114B10429F470E090E080EC6FE7F7C0A8
:101880002296F501D183C083F6CF8824992440E0C5
:1018900050E060E070E0EF2DE053EA30A0F5F2E0B8
:1018A000EF2A8E2D90E09C0128703070E2FE06C079
:1018B000232B79F50894811C911C2BC0232B19F044
:1018C000089481089108DB01CA0112E0880F991F72
:1018D000AA1FBB1F1A95D1F7480F591F6A1F7B1FFC
:1018E000440F551F661F771F4E0F511D611D711D3F
:1018F000483929E9520729E9620729E1720748F0C6
:1019000084E0E82A06C0EE3F31F4E3FC39C098E0F9
:10191000E92AF990C0CFE53311F0E53189F5299135
:101920002D3219F4E0E1EE2A05C02B3219F081E0E6
:1019300090E003C0299182E090E0E22FE053EA308A
:1019400018F0C81BD90B1CC020E030E0FCE02038A8
:101950003F075CF4C901880F991F880F991F280F52
:10196000391F220F331F2E0F311DE991E053EA304A
:1019700068F3E4FE03C0309521953F4F820E931E1D
:10198000CE2CDD24E1FE07C0A114B10421F0219783
:10199000F501D183C083CB01BA010E940BAC7B015E
:1019A0008C01F3E0CF22DD2423E0C216D10421F420
:1019B00017FB109517F9109557016801C801B70179
:1019C00020E030E040E050E00E946BAB882309F457
:1019D0004AC097FE0DC024E4E22E27E1F22E909437
:1019E000819491089394C0E2D0E000E010E012C02E
:1019F0009CE5E92E97E1F92EF6CFF7012591359177
:101A000045915491C601B5010E944BAE5B016C013A
:101A10008C1A9D0A8C169D0684F7D595C7950F5F85
:101A20001F4F0630110529F08CEF9FEFE80EF91ECD
:101A3000F1CFC501D6017C018D018C2D880F8D2D34
:101A4000881F8F3F51F0C601B50120E030E040E033
:101A500050E00E946BAB882331F482E290E09093D7
:101A60004E1180934D117E2D9F2D802F612F272F9A
:101A7000392F482F562FB901CA01CDB7DEB7ECE098
:101A80000C94DBAF2F923F925F926F927F928F9276
:101A90009F92AF92BF92CF92DF92EF92FF920F93FD
:101AA0001F93CF93DF938C011B01EA016115710530
:101AB00019F0FB0191838083209749F0CE010297B2
:101AC000839728F020E030E040E050E0F6C0F801D5
:101AD000A1908F018A2D90E00E94A6AF892BB9F7C3
:101AE000FDE2AF1631F4F801A1908F015524539413
:101AF00007C0FBE2AF1619F4F801A1908F0155243D
:101B0000209719F0C031D105C1F4F0E3AF1679F494
:101B1000F8018081883711F0883549F4F801A180F7
:101B20000E5F1F4FF2E05F2AC0E1D0E006C02097B1
:101B300021F480E3A816E9F427C0C830D10531F1BB
:101B4000C930D10524F4C230D10531F50CC0CA30FA
:101B5000D10589F0C031D105F9F4C12CD12CE12C8B
:101B6000B8E0FB2E28C0C12CD12CE12CA0E4FA2E29
:101B700022C0CAE0D0E0FCECCF2EFCECDF2EFCEC67
:101B8000EF2EFCE0FF2E17C0C8E0D0E0C12CD12C16
:101B9000E12CE0E1FE2E0FC09E01442737FD409569
:101BA000542F60E070E080E090E80E9463AFC901CC
:101BB000DA016C017D0120E030E040E050E060E0BF
:101BC0003E01882477FC8094982C70EDB72EBA0CD7
:101BD000E9E0EB1570F48A2D81548A3118F499EC00
:101BE000B92E06C08A2D81568A3150F589EAB82E61
:101BF000BA0C8B2D90E08C179D0714F56F3FE1F028
:101C0000C216D306E406F506B0F0CA01B901A40174
:101C100093010E941DAF9B01AC012B0D311D411D95
:101C2000511D2130F0E03F07F0E04F07F0E85F077B
:101C300010F461E001C06FEFF801A1908F01C5CFF2
:101C40002114310481F0662331F001501040F1017C
:101C50001183008308C051FE1AC002501040F101E8
:101C60001183008314C067FF12C050FC05C02FEF22
:101C70003FEF4FEF5FE704C020E030E040E050E886
:101C800082E290E090934E1180934D1116C050FE69
:101C900008C050954095309521953F4F4F4F5F4F6D
:101CA0000CC057FF0AC082E290E090934E118093DF
:101CB0004D112FEF3FEF4FEF5FE7B901CA01DF9101
:101CC000CF911F910F91FF90EF90DF90CF90BF9039
:101CD000AF909F908F907F906F905F903F902F90EC
:101CE0000895FB01DC0105900D920020E1F70895B5
:101CF000FB01DC014150504088F08D9181341CF093
:101D00008B350CF4805E659161341CF06B350CF4FE
:101D1000605E861B611171F3990B0895881BFCCFDF
:101D2000FB0155915523A9F0BF01DC014D914517E9
:101D30004111E1F759F4CD010590002049F04D9192
:101D400040154111C9F3FB014111EFCF81E090E053
:101D500001970895FB01DC0104C08D910190801969
:101D600021F441505040C8F7881B990B0895FB019E
:101D7000DC0102C001900D9241505040D8F7089507
:101D8000FB01DC010D900020E9F7119701900D9205
:101D90000020E1F70895FC018191861721F0882346
:101DA000D9F7992708953197CF010895FB01DC01F8
:101DB00001900D920020E1F70895FB01DC014150F4
:101DC000504030F08D910190801919F40020B9F73E
:101DD000881B990B0895FB01DC014150504048F0ED
:101DE00001900D920020C9F701C01D924150504052
:101DF000E0F70895AEE0B0E0E0E0FFE00C94C7AF9C
:101E00000D891E898EE08C831A8309838FEF9FE7EB
:101E10009E838D839E01275E3F4FCE0101966F8981
:101E2000788DA9010E941E0F2F813885020F131F84
:101E3000F80110822E96E4E00C94E3AFABE0B0E042
:101E4000E4E2FFE00C94B9AF3C012B015A01FC0124
:101E500017821682838181FD03C06FEF7FEFC6C1B9
:101E60009AE0892E1E010894211C311CF301238164
:101E7000F20123FD859123FF81912F01882309F42D
:101E8000B2C1853239F423FD859123FF81912F0161
:101E9000853229F490E0B3010E941111E7CF982F09
:101EA000FF24EE249924FFE1FF15D0F09B3269F066
:101EB0009C3228F4903259F0933291F40EC09D3246
:101EC00049F0903369F441E024C052E0F52A84E0FF
:101ED000F82A28C098E0F92A25C0E0E1FE2A22C0AD
:101EE000F7FC29C0892F80538A3070F4F6FE05C0B4
:101EF000989C902C1124980E15C0E89CE02C11247D
:101F0000E80EF0E2FF2A0EC09E3229F4F6FC6BC107
:101F100040E4F42A07C09C3619F450E8F52A02C0C0
:101F2000983649F4F20123FD959123FF91912F01F9
:101F3000992309F0B8CF892F8554833018F0805247
:101F4000833038F444E050E0A40EB51E5FE35983BB
:101F50000FC0933631F0933779F0933509F056C0BE
:101F600020C0F5018081898342E050E0A40EB51EB7
:101F7000610101E010E012C0F501C080D180F6FCE3
:101F800003C06FEF7FEF02C0692D70E042E050E0C8
:101F9000A40EB51EC6010E9406118C015FE7F52252
:101FA00014C0F501C080D180F6FC03C06FEF7FEF55
:101FB00002C0692D70E042E050E0A40EB51EC601DB
:101FC0000E94FB108C0150E8F52AF3FE07C01AC0EE
:101FD00080E290E0B3010E941111EA948E2D90E00E
:101FE00008171907A8F30EC0F601F7FC8591F7FE54
:101FF00081916F0190E0B3010E941111E110EA9408
:10200000015010400115110579F7EAC0943611F01E
:10201000993669F5F7FE08C0F501208131814281CA
:10202000538184E090E00AC0F501808191819C0198
:10203000442737FD4095542F82E090E0A80EB91E4A
:102040009FE6F92257FF09C050954095309521959C
:102050003F4F4F4F5F4FE0E8FE2ACA01B901A1018F
:102060002AE030E00E943D11D82ED21840C09537AA
:1020700029F41F2D1F7E2AE030E01DC01F2D197F7F
:102080009F3661F0903720F4983509F0ACC00FC04E
:10209000903739F0983709F0A6C004C028E030E046
:1020A0000AC0106114FD146020E130E004C014FD8A
:1020B000166020E132E017FF08C0F50160817181F0
:1020C0008281938144E050E008C0F50180819181D4
:1020D000BC0180E090E042E050E0A40EB51EA101FA
:1020E0000E943D11D82ED2188FE7F82EF122F6FE6D
:1020F0000BC05EEFF522D91438F4F4FE07C0F2FCF1
:1021000005C08FEEF82202C01D2D01C0192DF4FE6E
:102110000DC0FE01ED0DF11D8081803319F499EEA3
:10212000F92208C01F5FF2FE05C003C08F2D86781C
:1021300009F01F5F0F2DF3FC14C0F0FE0FC01E1539
:1021400010F09D2C0BC09D2C9E0C911A1E2D06C0CC
:1021500080E290E0B3010E9411111F5F1E15C0F3D1
:1021600004C01E1510F4E11A01C0EE2404FF0FC0D4
:1021700080E390E0B3010E94111102FF1DC001FD38
:1021800003C088E790E00EC088E590E00BC0802F88
:10219000867891F001FF02C08BE201C080E2F7FC7B
:1021A0008DE290E0B3010E94111106C080E390E03F
:1021B000B3010E9411119A94D914C0F3DA94F10179
:1021C000ED0DF11D808190E0B3010E941111DD2021
:1021D000A9F706C080E290E0B3010E941111EA94D1
:1021E000EE20C1F743CEF30166817781CB012B96B8
:1021F000E2E10C94D5AFFC010590615070400110F4
:10220000D8F7809590958E0F9F1F0895FC0161501F
:10221000704001900110D8F7809590958E0F9F1F08
:1022200008950F931F93CF93DF938C01EB018B8164
:1022300081FF1BC082FF0DC02E813F818C819D815B
:102240002817390764F4E881F9810193F983E88359
:1022500006C0E885F985802F0995892B31F48E8198
:102260009F8101969F838E8302C00FEF1FEFC801ED
:10227000DF91CF911F910F910895FA01AA2728307D
:1022800051F1203181F1E8946F936E7F6E5F7F4F43
:102290008F4F9F4FAF4FB1E03ED0B4E03CD0670FBF
:1022A000781F891F9A1FA11D680F791F8A1F911D12
:1022B000A11D6A0F711D811D911DA11D20D009F462
:1022C00068943F912AE0269F11243019305D3193A4
:1022D000DEF6CF010895462F4770405D4193B3E08D
:1022E0000FD0C9F7F6CF462F4F70405D4A3318F034
:1022F000495D31FD4052419302D0A9F7EACFB4E0E5
:10230000A6959795879577956795BA95C9F700979C
:102310006105710508959B01AC010A2E069457953D
:10232000479537952795BA95C9F7620F731F841F94
:10233000951FA01D0895DF93CF930F92CDB7DEB701
:10234000FC016983A081B18112962D913C91139774
:10235000BE016F5F7F4F41E050E0F90109950F909A
:10236000CF91DF9108951092090410920B041092FE
:102370000D0410921D04089580936B020895EFE6FA
:10238000F0E08081826080830895099A0B9A0D9A0B
:102390000F9A519A539A6F9A779A6E9A769A3F9AB1
:1023A000479A3B9A439A849A8C9A859A8D9A6B980D
:1023B000739A6C98749A24982C9A089A1098779A21
:1023C0001092880E0A9A1298769A1092890E0C9A98
:1023D0001498479A10928A0E0E9A1698439A509A19
:1023E0005898529A5A98A1E8B0E08C918F7E8C93BD
:1023F0008C9188608C93E0E8F0E080818D7F808311
:1024000080818E7F808380818F73808380818F7CA9
:1024100080838C91887F82608C9380E090E490939D
:102420008900809388001092850010928400EFE666
:10243000F0E080818260808381E080936B027894F9
:1024400008951F93FC011FB7F89480819181A281A8
:10245000B3818093AE039093AF03A093B003B09386
:10246000B103FB0180819181A281B3818093B2038A
:102470009093B303A093B403B093B503FA018081A2
:102480009181A281B3818093B6039093B703A09307
:10249000B803B093B903F90180819181A281B3811E
:1024A0008093BA039093BB03A093BC03B093BD0386
:1024B0001FBF1F910895FC012FB7F894808191816F
:1024C000A281B3818093BA039093BB03A093BC0312
:1024D000B093BD032FBF0895E82F8FB7F894F0E0B5
:1024E000EE0FFF1FEE0FFF1FE255FC4F20813181E1
:1024F000428153818FBFB901CA010895CF93DF9301
:102500002FB7F894C82FD0E0CC0FDD1FCC0FDD1F04
:10251000FE01E255FC4F60817181828193812FBF62
:102520000E940DACC35CD94F288139814A815B81FF
:102530000E9472ABDF91CF91089580916F008D7FE3
:1025400080936F0006C080916B0B8F5F8F708093BC
:102550006B0B90916A0B80916B0B981751F4109252
:10256000A1031092A00380916F00826080936F009E
:10257000089590916A0B80916B0B981751F3E3CFFC
:102580008FEB93E060E00E94A91B08958091BE0349
:10259000882321F08FEB93E00E949C1C0895CF9339
:1025A000DF93DB010D900020E9F71197A61BB70B15
:1025B000EC01E881F9810280F381E02DAD010995FC
:1025C000DF91CF9108950F931F93CF93DF93809165
:1025D000BE03882309F4DFC007E011E0F80164912D
:1025E000E80107C080E491E10E949B112196FE0161
:1025F00064916623B9F7E8E2F1E06491EF0107C066
:1026000080E491E10E949B112196FE016491662372
:10261000B9F780E491E16AE00E949B11F8016491AE
:10262000C7E0D1E007C080E491E10E949B112196B0
:10263000FE0164916623B9F78FEB93E063E00E949B
:10264000B21BA0E0B0E0BC01CD010E940BAC20E0C9
:1026500030E048EC52E40E944BAE20E030E04CE524
:1026600055E40E9472ABAB01BC0184E291E00E9490
:10267000EF6D8FEB93E063E00E94B21BAC0160E072
:1026800070E082E291E00E94BC658FEB93E062E033
:102690000E94B21BA0E0B0E0BC01CD010E940BACD7
:1026A00020E030E048EC52E40E944BAE20E030E005
:1026B0004CE555E40E9472ABAB01BC018DE191E0A9
:1026C0000E94EF6D8FEB93E062E00E94B21BAC01C1
:1026D00060E070E08BE191E00E94BC658FEB93E0DD
:1026E00061E00E94B21BA0E0B0E0BC01CD010E94FD
:1026F0000BAC20E030E048EC52E40E944BAE20E00E
:1027000030E04CE555E40E9472ABAB01BC0186E1C0
:1027100091E00E94EF6D8FEB93E061E00E94B21BAD
:10272000AC0160E070E084E191E00E94BC658FEB59
:1027300093E060E00E94B21BA0E0B0E0BC01CD01DC
:102740000E940BAC20E030E048EC52E40E944BAE1B
:1027500020E030E04CE555E40E9472ABAB01BC01D7
:102760008FE091E00E94EF6D8FEB93E060E00E94BC
:10277000B21BAC0160E070E08DE091E00E94BC65AE
:1027800080E491E160E071E00E94CF1280E491E189
:102790006AE00E949B11DF91CF911F910F910895E4
:1027A000982F8091BE038823A9F0E92FF0E0EF5F16
:1027B000FC4F9B018DE0613C780710F020EC3DE080
:1027C0008FEB93E06081A9010E94C31C8FEB93E023
:1027D0000E94D21B0895CF92DF92EF92FF920F9347
:1027E0001F93082F6A017B018091BE038823A1F10A
:1027F000CB01BA0120E030E048EC52E40E9479AD10
:10280000181654F40F2EF0E0CF2EF0E0DF2EF8EC87
:10281000EF2EF2E4FF2EF02D10E00F5F1C4FC701EA
:10282000B60120E030E04CE555E40E944BAE20E0DC
:1028300030E048EC52E40E9472AB0E94DFAB9B0197
:10284000AC018FEB93E0F8016081A9010E94C31CE9
:102850008FEB93E00E94D21B1F910F91FF90EF909E
:10286000DF90CF900895FF920F931F93CF93DF9344
:102870008FEB93E00E94611D8FEB93E00E94D61BCB
:10288000882319F02FEF3FEF4AC081E08093BE0309
:102890008FEB93E060E00E94B21B182F8FEB93E068
:1028A00061E00E94B21BF82E8FEB93E062E00E9481
:1028B000B21B082F8FEB93E063E00E94B21B112341
:1028C000E1F4FF20D1F40023C1F48823B1F4C0E087
:1028D000D0E0FE01EB5FFC4F608170E080E090E0B3
:1028E0000E940BACAB01BC018C2F0E94EB13219614
:1028F000C430D10571F70E94C61210E08FEB93E04F
:10290000612F41E00E94491C8FEB93E0612F40E072
:102910000E940E1C1F5F143089F720E030E0C901CF
:10292000DF91CF911F910F91FF90089590916A0BC5
:1029300080916B0B981729F00E9401550E945166F7
:10294000F5CF08950E949614779A1092880E769A81
:102950001092890E479A10928A0E439A08951F92F8
:102960000F920FB60F920BB60F921124AF92BF9237
:10297000CF92DF92EF92FF920F931F932F933F938B
:102980004F935F936F937F938F939F93AF93BF9377
:10299000CF93DF93EF93FF938091A0039091A103D6
:1029A000892B09F099C190916A0B80916B0B981754
:1029B00019F4E0E0F0E014C080916B0B90E02DE49E
:1029C00030E0829FF001839FF00D929FF00D112463
:1029D000E656F94FE45BFF4F81E08083EC54F04012
:1029E000F093A103E093A003309709F46FC1E45B77
:1029F000FF4F81E08083EC54F04010921504109258
:102A00001604109217041092180440AD51AD2CE931
:102A10004134520718F040E45CE904C03EE441321E
:102A2000530730F0569547955695479584E007C073
:102A300067E24131560730F05695479582E0809322
:102A40000E0407C080930E044032510510F440E29A
:102A500050E08A010052104078E000301707E8F09B
:102A6000412F50E0440F551F440F551F475B5E4FE9
:102A70009A012E5F3F4FF901859194919C01AA27FD
:102A8000039FC001029F810D9A1F06948A1F9A1FFF
:102A90001124FA01459154911EC0C801969587955D
:102AA0008C7F875B9A4FFC0145915491FC013296D3
:102AB00025913491802F90E087709070BC01269F03
:102AC000C001279F900D369F900D112423E096950D
:102AD00087952A95E1F7481B590B44365105A8F410
:102AE00080E491E162E071E00E94CF12A80160E011
:102AF00070E080E491E12AE000E00E94FDA680E41D
:102B000091E10E94E1A644E650E050931A044093FC
:102B1000190480910E04992787FD909590931C04C9
:102B200080931B04E091A003F091A10344AD55AD47
:102B300050931404409313047CE94134570718F070
:102B400040E45CE904C08EE44132580730F0569509
:102B500047955695479584E007C097E2413159075C
:102B600030F05695479582E080930E0408C081E0CE
:102B700080930E044032510510F440E250E08A0187
:102B800000521040E8E000301E07E8F0412F50E00E
:102B9000440F551F440F551F475B5E4F9A012E5F30
:102BA0003F4FF901859194919C01AA27039FC00191
:102BB000029F810D9A1F06948A1F9A1F1124FA0101
:102BC000459154911EC0C801969587958C7F875B6F
:102BD0009A4FFC0145915491FC0132962591349114
:102BE000802F90E087709070BC01269FC001279FC6
:102BF000900D369F900D1124F3E096958795FA95E8
:102C0000E1F7481B590B44365105A8F480E491E1E3
:102C100062E071E00E94CF12A80160E070E080E401
:102C200091E12AE000E00E94FDA680E491E10E948B
:102C3000E1A644E650E0CA01A0E0B0E080930F04B2
:102C400090931004A0931104B09312045093890040
:102C500040938800E091A003F091A10380899189BD
:102C6000A289B389B695A79597958795B095A095B4
:102C7000909581959F4FAF4FBF4F8093F3039093F3
:102C8000F403A093F503B093F6038093F7039093B6
:102C9000F803A093F903B093FA038093FB03909396
:102CA000FC03A093FD03B093FE038093FF03909376
:102CB0000004A0930104B093020410920304109244
:102CC0000404109205041092060406C080ED97E0FB
:102CD0009093890080938800E091A003F091A10374
:102CE000309709F45CC480A18093070480FF03C07F
:102CF000119A8FEF02C0119881E080936702809152
:102D0000070481FF03C0139A8FEF02C0139881E07C
:102D1000809368028091070480FF37C080916B0226
:102D2000882399F1639902C080E02DC08091080446
:102D3000882341F180819181A281B38118161906FF
:102D40001A061B06FCF48091AE039091AF03A0918C
:102D5000B003B091B1038093A2039093A303A09317
:102D6000A403B093A50381E080930904808991892D
:102D7000A289B3898093030490930404A09305046B
:102D8000B093060481E0809308048091070481FDDC
:102D900037C080916B02882399F11C9902C080E0B2
:102DA0002DC080910A04882341F184819581A681F8
:102DB000B781181619061A061B06FCF48091B20397
:102DC0009091B303A091B403B091B5038093A6038F
:102DD0009093A703A093A803B093A90381E08093E5
:102DE0000B0480899189A289B3898093030490930D
:102DF0000404A0930504B093060481E080930A04C0
:102E00008091070482FF3FC0159A8FEF809369027B
:102E100080916B028823D9F18CB182958F70809557
:102E2000282F217080FF2CC080910C04882341F151
:102E300080859185A285B385181619061A061B068A
:102E4000FCF48091B6039091B703A091B803B091C0
:102E5000B9038093AA039093AB03A093AC03B09300
:102E6000AD0381E080930D0480899189A289B389A3
:102E70008093030490930404A0930504B093060484
:102E800020930C0404C0159881E08093690280911E
:102E9000070483FF03C017988FEF02C0179A81E0E1
:102EA00080936A028091070483FF03C017988FEF15
:102EB00002C0179A81E080936A0260E04DC12081D0
:102EC0003181428153818091F3039091F403A09169
:102ED000F503B091F603280F391F4A1F5B1F20939B
:102EE000F3033093F4034093F5035093F603121663
:102EF0001306140615066CF5109A80899189A2892B
:102F0000B389281B390B4A0B5B0B2093F3033093D7
:102F1000F4034093F5035093F6032091AE033091F0
:102F2000AF034091B0035091B1038091670299279C
:102F300087FD9095A92FB92F820F931FA41FB51F4E
:102F40008093AE039093AF03A093B003B093B1030B
:102F5000109824813581468157818091F7039091A3
:102F6000F803A091F903B091FA03280F391F4A1F03
:102F70005B1F2093F7033093F8034093F9035093BA
:102F8000FA0312161306140615066CF5129A8089B8
:102F90009189A289B389281B390B4A0B5B0B2093BB
:102FA000F7033093F8034093F9035093FA03209109
:102FB000B2033091B3034091B4035091B5038091B3
:102FC0006802992787FD9095A92FB92F820F931F2B
:102FD000A41FB51F8093B2039093B303A093B403CF
:102FE000B093B50312982085318542855385809131
:102FF000FB039091FC03A091FD03B091FE03280F09
:10300000391F4A1F5B1F2093FB033093FC0340933F
:10301000FD035093FE0312161306140615066CF5F5
:10302000149A80899189A289B389281B390B4A0B8C
:103030005B0B2093FB033093FC034093FD03509301
:10304000FE032091B6033091B7034091B80350912D
:10305000B90380916902992787FD9095A92FB92F0F
:10306000820F931FA41FB51F8093B6039093B703DD
:10307000A093B803B093B903149824853585468589
:1030800057858091FF0390910004A0910104B091B5
:103090000204280F391F4A1F5B1F2093FF03309340
:1030A0000004409301045093020412161306140600
:1030B00015066CF5169A80899189A289B389281B17
:1030C000390B4A0B5B0B2093FF03309300044093B2
:1030D0000104509302042091BA033091BB03409144
:1030E000BC035091BD0380916A02992787FD90959A
:1030F000A92FB92F820F931FA41FB51F8093BA0366
:103100009093BB03A093BC03B093BD03169880912A
:10311000030490910404A0910504B0910604019663
:10312000A11DB11D8093030490930404A093050492
:10313000B0930604209103043091040440910504E7
:103140005091060480899189A289B389281739078B
:103150004A075B0730F46F5F80910E0468170CF428
:10316000AECE2091030430910404409105045091A7
:10317000060484899589A689B78982179307A407CD
:10318000B50708F4E4C0E0900F04F090100400913B
:10319000110410911204A48CB58CC68CD78CA80194
:1031A0009701C601B501AA27279FB12D389FE001DD
:1031B000489FD00D479FC00DD11D289FB00DC11D48
:1031C000DA1F379FB00DC11DDA1F469FB00DC11D1C
:1031D000DA1F369FB10DCA1FDA1FB695CA1FDA1F54
:1031E000112484AD95AD8C0F9D1F90931404809392
:1031F000130420AD31AD42AD53ADA0E0B0E02817CF
:1032000039074A075B0720F4309314042093130412
:1032100040911304509114047CE94134570718F08D
:1032200040E45CE904C08EE44132580730F0569522
:1032300047955695479584E007C097E24131590775
:1032400030F05695479582E080930E0408C081E0E7
:1032500080930E044032510510F440E250E08A01A0
:1032600000521040E8E000301E07E8F0412F50E027
:10327000440F551F440F551F475B5E4F9A012E5F49
:103280003F4FF901859194919C01AA27039FC001AA
:10329000029F810D9A1F06948A1F9A1F1124FA011A
:1032A000459154911EC0C801969587958C7F875B88
:1032B0009A4FFC0145915491FC013296259134912D
:1032C000802F90E087709070BC01269FC001279FDF
:1032D000900D369F900D1124B3E096958795BA9581
:1032E000E1F7481B590B44365105A8F480E491E1FD
:1032F00062E071E00E94CF12A80160E070E080E41B
:1033000091E12AE000E00E94FDA680E491E10E94A4
:10331000E1A644E650E050938900409388009A016A
:1033200040E050E080910F0490911004A0911104AE
:10333000B0911204820F931FA41FB51F80930F0436
:1033400090931004A0931104B093120403C1209130
:103350000304309104044091050450910604808DCB
:10336000918DA28DB38D82179307A407B50708F03E
:10337000E5C0609115047091160480911704909136
:103380001804248D358D468D578DAA27639FB12D46
:10339000749F8001849F100D839F000D111D649FF9
:1033A000B00D011D1A1F739FB00D011D1A1F829FC2
:1033B000B00D011D1A1F729FB10D0A1F1A1FB6957D
:1033C0000A1F1A1F1124809113049091140480176E
:1033D000910738F4E05CFF4F40815181E054F040A8
:1033E00003C0AC01401B510BE05CFF4F0081118119
:1033F00022813381CA01A0E0B0E080179107A207C3
:10340000B30708F4A8017CE94134570718F040E4F9
:103410005CE904C08EE44132580730F05695479578
:103420005695479584E007C097E24131590730F03F
:103430005695479582E080930E0408C081E0809302
:103440000E044032510510F440E250E08A0100526F
:103450001040E8E000301E07E8F0412F50E0440F34
:10346000551F440F551F475B5E4F9A012E5F3F4F1C
:10347000F901859194919C01AA27039FC001029FA5
:10348000810D9A1F06948A1F9A1F1124FA014591F3
:1034900054911EC0C801969587958C7F875B9A4F83
:1034A000FC0145915491FC01329625913491802F75
:1034B00090E087709070BC01269FC001279F900DFF
:1034C000369F900D112463E0969587956A95E1F7F4
:1034D000481B590B44365105A8F480E491E162E0A1
:1034E00071E00E94CF12A80160E070E080E491E1F9
:1034F0002AE000E00E94FDA680E491E10E94E1A69E
:1035000044E650E050938900409388009A0140E0DF
:1035100050E08091150490911604A0911704B09189
:103520001804820F931FA41FB51F80931504909356
:103530001604A0931704B09318040CC080911904CA
:1035400090911A04909389008093880080911B04C5
:1035500080930E04209103043091040440910504EB
:1035600050910604E091A003F091A1038089918914
:10357000A289B389281739074A075B0780F01092A0
:10358000A1031092A00390916A0B80916B0B981786
:1035900031F080916B0B8F5F8F7080936B0BFF917D
:1035A000EF91DF91CF91BF91AF919F918F917F91DB
:1035B0006F915F914F913F912F911F910F91FF90CC
:1035C000EF90DF90CF90BF90AF900F900BBE0F9019
:1035D0000FBE0F901F901895CF93DF938091090431
:1035E000882369F480910B04882349F480910D04A9
:1035F000882329F480911D04882309F4A7C0E7E0FB
:10360000F1E06491EF0107C080E491E10E949B1119
:103610002196FE0164916623B9F7E9E5F9E064912A
:10362000EF0107C080E491E10E949B112196FE0109
:1036300064916623B9F7809109048823D1F06091E1
:10364000A2037091A3038091A4039091A5030E940B
:103650000DAC20913D0630913E0640913F065091C1
:1036600040060E9472ABAB01BC0185E599E00E9467
:10367000126E80910B048823D1F06091A6037091A3
:10368000A7038091A8039091A9030E940DAC2091FB
:1036900041063091420640914306509144060E94F3
:1036A00072ABAB01BC0181E599E00E94126E809182
:1036B0000D048823D1F06091AA037091AB0380912F
:1036C000AC039091AD030E940DAC20914506309162
:1036D000460640914706509148060E9472ABAB01E6
:1036E000BC018DE499E00E94126E80911D04882334
:1036F000D1F06091AE037091AF038091B0039091CF
:10370000B1030E940DAC2091490630914A064091C8
:103710004B0650914C060E9472ABAB01BC0189E490
:1037200099E00E94126E80E491E166E171E00E94EE
:10373000CF1280E491E16AE00E949B11109209048B
:1037400010920B0410920D0410921D04DF91CF9182
:103750000895FC0161836066608388E893E193AB20
:1037600082AB0895E62FF0E03796EE0FFF1FE80FCB
:10377000F91F808191810895FF920F931F93F62E78
:1037800001EC10E1C80160E070E00E94029EC801F7
:103790006F2D0E94849EC8010E94C59E1F910F91AB
:1037A000FF90089568E00E94BC1B089566E00E94A7
:1037B000BC1B0895EF92FF920F931F938C01B1EC05
:1037C000EB2EB0E1FB2EC701F80160810E94F89D4D
:1037D000F801618570E0606C868190E0A3E0880F5D
:1037E000991FAA95E1F7682B792B878190E0880FC4
:1037F000991F880F991F682B792B808590E0880F7F
:10380000991F682B792BC7010E94849EC7010E94D3
:10381000C59E1F910F91FF90EF900895FC01E60F58
:10382000F11D46830E94DA1B0895EF92FF920F93D9
:103830001F938C0131ECE32E30E1F32EC701F80128
:1038400060810E94F89DF801658170E06068828166
:1038500090E023E0880F991F2A95E1F7682B792BD8
:10386000838190E0880F991F880F991F682B792B0F
:10387000848190E0880F991F682B792BC7010E94E3
:10388000849EC7010E94C59E1F910F91FF90EF90EB
:103890000895FC01E60FF11D42830E94151C089556
:1038A000FF920F931F93CF93DF938C0181EC90E1F4
:1038B000F80160810E94F89D81EC90E160E50E9432
:1038C000849EE801FF246A8570E0E5E0660F771FBB
:1038D000EA95E1F78A8190E09695982F8827979549
:1038E0008795682B792B8E8190E044E0880F991F93
:1038F0004A95E1F7682B792BF801878590E0682BD2
:10390000792B81EC90E10E94849E81EC90E1F8019A
:1039100066850E94849EF39421960E5F1F4FF4E00B
:10392000FF1689F681EC90E10E94C59EDF91CF9150
:103930001F910F91FF9008950E94501C08950F93BE
:103940001F93CF93DF938C0181EC90E1F8016081AC
:103950000E94F89DE80100E06F8581EC90E10E94F3
:10396000849E81EC90E16E850E94849E0F5F22967A
:10397000043091F781EC90E10E94C59EDF91CF91D8
:103980001F910F910895E62FF0E03796EE0FFF1F7D
:10399000E80FF91F518340830E949F1C0895AF9246
:1039A000BF92CF92DF92FF920F931F93CF93DF933B
:1039B0006C01FC01608181EC90E170E048E150E035
:1039C0000E94D69E6DC081EC90E10E94159E97FDED
:1039D00080E0A82EBB2481EC90E10E94159E97FF09
:1039E00002C0FF2401C0F82E0F2D10E081EC90E101
:1039F0000E94159E97FF02C060E001C0682FE5019C
:103A0000C073D070E4E0D595C795EA95E1F7D6018B
:103A1000AC0FBD1F980120783070A8014071507024
:103A2000F801E076F0708F2D8F70A3FE1AC0220F80
:103A3000232F221F330B5E962C935E9794E05595AF
:103A400047959A95E1F792964C93929705E0F595F4
:103A5000E7950A95E1F79696EC930E9462A82B965B
:103A600019C0220F232F221F330B12962C9312976B
:103A700074E0559547957A95E1F716964C9316970D
:103A800055E0F595E7955A95E1F71A96EC930E9463
:103A900062A82796CC0FDD1FCC0DDD1D998388838E
:103AA00081EC90E10E940C9E892B09F08CCFDF9174
:103AB000CF911F910F91FF90DF90CF90BF90AF906B
:103AC00008950F931F938C0181EC90E10E94DA9E80
:103AD000C8010E94CF1C1F910F9108950F931F934F
:103AE000DF93CF93CDB7DEB766970FB6F894DEBFFE
:103AF0000FBECDBF8091170190911801A0911901BF
:103B0000B0911A018F87988BA98BBA8BFE013F96D3
:103B100044E650E08081F999FECF1FBA52BD41BD05
:103B200080BD0FB6F894FA9AF99A0FBE4F5F5F4FB7
:103B30004836510511F03196EDCFEDE3F6E0808186
:103B4000F999FECF1FBA52BD41BD80BD0FB6F894A2
:103B5000FA9AF99A0FBE4F5F5F4F4837510511F03F
:103B60003196EDCFEDE2F6E08081F999FECF1FBAF4
:103B700052BD41BD80BD0FB6F894FA9AF99A0FBEB6
:103B80004F5F5F4F4838510511F03196EDCFEDE4AE
:103B9000F6E08081F999FECF1FBA52BD41BD80BDCC
:103BA0000FB6F894FA9AF99A0FBE4F5F5F4F4839F3
:103BB000510511F03196EDCFE1E6F6E08081F999FB
:103BC000FECF1FBA52BD41BD80BD0FB6F894FA9A20
:103BD000F99A0FBE4F5F5F4F4C39510511F0319686
:103BE000EDCFE5E6F6E08081F999FECF1FBA52BD30
:103BF00041BD80BD0FB6F894FA9AF99A0FBE4F5F97
:103C00005F4F403A510511F03196EDCFEDE5F6E00A
:103C10008081F999FECF1FBA52BD41BD80BD0FB65C
:103C2000F894FA9AF99A0FBE4F5F5F4F443A5105E4
:103C300011F03196EDCFE5E7F6E08081F999FECFFE
:103C40001FBA52BD41BD80BD0FB6F894FA9AF99AD9
:103C50000FBE4F5F5F4F483A510511F03196EDCFDF
:103C6000E9E2F6E08081F999FECF1FBA52BD41BD6D
:103C700080BD0FB6F894FA9AF99A0FBE4F5F5F4F66
:103C80004C3A510511F03196EDCFE9E6F6E080812E
:103C9000F999FECF1FBA52BD41BD80BD0FB6F89451
:103CA000FA9AF99A0FBE4F5F5F4F403B510511F0F2
:103CB0003196EDCFEDE6F6E08081F999FECF1FBA9F
:103CC00052BD41BD80BD0FB6F894FA9AF99A0FBE65
:103CD0004F5F5F4F443B510511F03196EDCFE1E767
:103CE000F6E08081F999FECF1FBA52BD41BD80BD7B
:103CF0000FB6F894FA9AF99A0FBE4F5F5F4F483BA0
:103D0000510511F03196EDCFE0E7FEE08081F999A1
:103D1000FECF1FBA52BD41BD80BD0FB6F894FA9ACE
:103D2000F99A0FBE4F5F5F4F443C510511F0319639
:103D3000EDCF84EB90E09A83898386E490E09C83C6
:103D40008B832FEF30E03E832D8380EF90E09887C8
:103D50008F8384E690E09A8789873C872B87FE01D2
:103D600031968081F999FECF1FBA52BD41BD80BD09
:103D70000FB6F894FA9AF99A0FBE4F5F5F4F463C20
:103D8000510571F7FE0133968081F999FECF1FBA74
:103D900052BD41BD80BD0FB6F894FA9AF99A0FBE94
:103DA0004F5F5F4F483C510511F03196EDCFFE015A
:103DB00035968081F999FECF1FBA52BD41BD80BDB5
:103DC0000FB6F894FA9AF99A0FBE4F5F5F4F4A3CCC
:103DD000510511F03196EDCFFE0137968081F999AA
:103DE000FECF1FBA52BD41BD80BD0FB6F894FA9AFE
:103DF000F99A0FBE4F5F5F4F4C3C510511F0319661
:103E0000EDCFFE0139968081F999FECF1FBA52BDE0
:103E100041BD80BD0FB6F894FA9AF99A0FBE4F5F74
:103E20005F4F4E3C510511F03196EDCFFE013B96B0
:103E30008081F999FECF1FBA52BD41BD80BD0FB63A
:103E4000F894FA9AF99A0FBE4F5F5F4F403D5105C3
:103E500011F03196EDCFE3EEF2E08081F999FECFDB
:103E60001FBA52BD41BD80BD0FB6F894FA9AF99AB7
:103E70000FBE4F5F5F4F443D510511F03196EDCFBE
:103E8000E7EEF2E08081F999FECF1FBA52BD41BD45
:103E900080BD0FB6F894FA9AF99A0FBE4F5F5F4F44
:103EA000483D510511F03196EDCFEBEEF2E0808107
:103EB000F999FECF1FBA52BD41BD80BD0FB6F8942F
:103EC000FA9AF99A0FBE4F5F5F4F4C3D510511F0C2
:103ED0003196EDCFE0EAF2E08081F999FECF1FBA8A
:103EE00052BD41BD80BD0FB6F894FA9AF99A0FBE43
:103EF0004F5F5F4F403E510511F03196EDCFE4EA40
:103F0000F2E08081F999FECF1FBA52BD41BD80BD5C
:103F10000FB6F894FA9AF99A0FBE4F5F5F4F443E7E
:103F2000510511F03196EDCFE8EAF2E08081F99980
:103F3000FECF1FBA52BD41BD80BD0FB6F894FA9AAC
:103F4000F99A0FBE4F5F5F4F483E510511F0319611
:103F5000EDCF80E290E09E878D87FE013D968081C7
:103F6000F999FECF1FBA52BD41BD80BD0FB6F8947E
:103F7000FA9AF99A0FBE4F5F5F4F4A3E510511F012
:103F80003196EDCFE2EAFEE08081F999FECF1FBACB
:103F900052BD41BD80BD0FB6F894FA9AF99A0FBE92
:103FA0004F5F5F4F4E3E510511F03196EDCFE7ED7B
:103FB000F2E08081F999FECF1FBA52BD41BD80BDAC
:103FC0000FB6F894FA9AF99A0FBE4F5F5F4F423FCF
:103FD000510511F03196EDCFE6EAFEE08081F999C6
:103FE000FECF1FBA52BD41BD80BD0FB6F894FA9AFC
:103FF000F99A0FBE4F5F5F4F463F510511F0319662
:10400000EDCFEBEDF2E08081F999FECF1FBA52BD02
:1040100041BD80BD0FB6F894FA9AF99A0FBE4F5F72
:104020005F4F4A3F510511F03196EDCFEAEAFEE0CD
:104030008081F999FECF1FBA52BD41BD80BD0FB638
:10404000F894FA9AF99A0FBE4F5F5F4F4E3F5105B1
:1040500011F03196EDCFEFEDF2E08081F999FECFCE
:104060001FBA52BD41BD80BD0FB6F894FA9AF99AB5
:104070000FBE81E04130580721F04F5F5F4F31960E
:10408000ECCF80911B0190911C01A0911D01B0917A
:104090001E018B8B9C8BAD8BBE8BFE01739684E6D1
:1040A00090E02081F999FECF1FBA92BD81BD20BD5D
:1040B0000FB6F894FA9AF99A0FBE8736910519F05F
:1040C00001963196EECFE8E6F9E064918F0108C0E1
:1040D00080E491E10E949B110F5F1F4FF8016491F2
:1040E0006623B1F7ECEDFBE064918F0108C080E43A
:1040F00091E10E949B110F5F1F4FF80164916623AD
:10410000B1F780E491E16AE00E949B1166960FB6D8
:10411000F894DEBF0FBECDBFCF91DF911F910F91FD
:104120000895EF92FF920F931F93DF93CF93CDB734
:10413000DEB7E0970FB6F894DEBF0FBECDBFDE014D
:104140001196EAE2F3E080E101900D928150E1F7EF
:10415000DE015196EAE1F3E080E101900D92815099
:10416000E1F7DE019196EAE0F3E080E101900D9243
:104170008150E1F789819A81AB81BC8180933D06B2
:1041800090933E06A0933F06B093400689899A8992
:10419000AB89BC8980932D0690932E06A0932F06A1
:1041A000B093300689A19AA1ABA1BCA180934D0622
:1041B00090934E06A0934F06B09350068D819E813A
:1041C000AF81B8858093410690934206A093430641
:1041D000B09344068D899E89AF89B88D809331064E
:1041E00090933206A0933306B09334068DA19EA11E
:1041F000AFA1B8A58093510690935206A0935306A1
:10420000B093540689859A85AB85BC858093450615
:1042100090934606A0934706B0934806898D9A8DE1
:10422000AB8DBC8D8093350690933606A0933706F0
:10423000B093380689A59AA5ABA5BCA58093550671
:1042400090935606A0935706B09358068D859E8589
:10425000AF85B8898093490690934A06A0934B0690
:10426000B0934C068D8D9E8DAF8DB8A1809339068D
:1042700090933A06A0933B06B0933C068DA59EA56D
:10428000AFA5B8A98093590690935A06A0935B06F0
:10429000B0935C060E94F52E80E090E8ABE3B5E4B5
:1042A0008093610690936206A0936306B0936406C0
:1042B0008093650690936606A0936706B0936806A0
:1042C0000F2EF0E0EF2EF0E0FF2EF0E00F2FF0E0E9
:1042D0001F2FF02DE0925D06F0925E0600935F06C0
:1042E0001093600680E29EE4A0E0B0E0809329068F
:1042F00090932A06A0932B06B0932C06E0927506A5
:10430000F0927606009377061093780620E030E06E
:1043100040EA51E42093690630936A0640936B06A5
:1043200050936C068DEC9CECACECBEE380936D0678
:1043300090936E06A0936F06B093700680E090E0B5
:10434000A0EAB0E48093710690937206A09373067E
:10435000B0937406E092780EF092790E00937A0E84
:1043600010937B0EE092740EF092750E0093760E11
:104370001093770EE092700EF092710E0093720E11
:104380001093730E2093E3023093E4024093E5020E
:104390005093E602E092E702F092E8020093E9020D
:1043A0001093EA02E092EB02F092EC020093ED022D
:1043B0001093EE0288E491EEA0E9B1E48093A002AC
:1043C0009093A102A093A202B093A30263EC75EFB5
:1043D00088E89FE30E9487506093A4027093A5022F
:1043E0008093A6029093A70268EB7EE189E992E4AC
:1043F0000E9495506093A8027093A9028093AA022C
:104400009093AB020E94974F80E090E0A0E8BFE35A
:104410008093AC029093AD02A093AE02B093AF0232
:10442000E092A20EF092A30E0093A40E1093A50E9C
:10443000E092A60EF092A70E0093A80E1093A90E7C
:10444000E092AA0EF092AB0E0093AC0E1093AD0E5C
:1044500080E090E0A8E1B3E48093D7029093D80283
:10446000A093D902B093DA028093DB029093DC022E
:10447000A093DD02B093DE028093DF029093E0020E
:10448000A093E102B093E202E8E6F9E064918F01C3
:1044900008C080E491E10E949B110F5F1F4FF8015B
:1044A00064916623B1F7EEE6F9E064918F0108C0EC
:1044B00080E491E10E949B110F5F1F4FF80164910E
:1044C0006623B1F780E491E16AE00E949B11E096D7
:1044D0000FB6F894DEBF0FBECDBFCF91DF911F9115
:1044E0000F91FF90EF9008950F931F93CF93DF9359
:1044F00008E619E0F8016491E80107C080E491E161
:104500000E949B112196FE0164916623B9F7ECECA1
:10451000FBE06491EF0107C080E491E10E949B11F0
:104520002196FE0164916623B9F780E491E16AE087
:104530000E949B11F8016491C8E6D9E007C080E4AD
:1045400091E10E949B112196FE0164916623B9F7C7
:1045500040913D0650913E0660913F0670914006A5
:1045600084EC9BE00E94126E4091410650914206FD
:10457000609143067091440681EC9BE00E94126EAC
:104580004091450650914606609147067091480655
:104590008EEB9BE00E94126E4091490650914A06B4
:1045A00060914B0670914C068BEB9BE00E94126E63
:1045B00080E491E16FE171E00E94CF1280E491E12B
:1045C0006AE00E949B11F8016491C8E6D9E007C037
:1045D00080E491E10E949B112196FE016491662383
:1045E000B9F7E1EAFBE06491EF0107C080E491E1F3
:1045F0000E949B112196FE0164916623B9F780E425
:1046000091E16AE00E949B11F8016491C8E6D9E04B
:1046100007C080E491E10E949B112196FE01649104
:104620006623B9F740912D0650912E0660912F0612
:104630007091300688E99BE00E94126E409131062D
:1046400050913206609133067091340685E99BE003
:104650000E94126E409135065091360660913706E1
:104660007091380682E99BE00E94126E40913906F3
:1046700050913A0660913B0670913C068FE89BE0B2
:104680000E94126E80E491E16FE171E00E94CF120E
:1046900080E491E16AE00E949B11F8016491C8E610
:1046A000D9E007C080E491E10E949B112196FE01B0
:1046B00064916623B9F7E1E7FBE06491EF0107C07D
:1046C00080E491E10E949B112196FE016491662392
:1046D000B9F780E491E16AE00E949B11F8016491CE
:1046E000C8E6D9E007C080E491E10E949B112196C1
:1046F000FE0164916623B9F740914D0650914E0634
:1047000060914F067091500688E69BE00E94BC6560
:104710004091510650915206609153067091540693
:1047200085E69BE00E94BC65409155065091560677
:10473000609157067091580682E69BE00E94BC6526
:104740004091590650915A0660915B0670915C0643
:104750008FE59BE00E94BC6580E491E16FE171E030
:104760000E94CF1280E491E16AE00E949B11F8015F
:104770006491C8E6D9E007C080E491E10E949B11F2
:104780002196FE0164916623B9F7EAE2FBE06491A9
:10479000EF0107C080E491E10E949B112196FE0188
:1047A00064916623B9F780E491E16AE00E949B116D
:1047B000F8016491C8E6D9E007C080E491E10E9465
:1047C0009B112196FE0164916623B9F74091610621
:1047D00050916206609163067091640681E29BE0ED
:1047E0000E94126E409165065091660660916706C0
:1047F000709168068EE19BE00E94126E80E491E168
:104800006FE171E00E94CF1280E491E16AE00E94C2
:104810009B11F8016491C8E6D9E007C080E491E1FA
:104820000E949B112196FE0164916623B9F7EBE685
:10483000FAE06491EF0107C080E491E10E949B11CE
:104840002196FE0164916623B9F780E491E16AE064
:104850000E949B11F8016491C8E6D9E007C080E48A
:1048600091E10E949B112196FE0164916623B9F7A4
:1048700040915D0650915E0660915F067091600602
:1048800082E69AE00E94126E40917506509176067B
:1048900060917706709178068FE59AE00E94126E1B
:1048A0004091290650912A0660912B0670912C06A2
:1048B0008CE59AE00E94BC654091690650916A06B9
:1048C00060916B0670916C0689E59AE00E94126E09
:1048D00040916D0650916E0660916F067091700662
:1048E00086E59AE00E94126E409171065091720620
:1048F000609173067091740683E59AE00E94126ECF
:1049000080E491E16FE171E00E94CF1280E491E1D7
:104910006AE00E949B11F8016491C8E6D9E007C0E3
:1049200080E491E10E949B112196FE01649166232F
:10493000B9F7E1E4FAE06491EF0107C080E491E1A6
:104940000E949B112196FE0164916623B9F780E4D1
:1049500091E16AE00E949B11F8016491C8E6D9E0F8
:1049600007C080E491E10E949B112196FE016491B1
:104970006623B9F74091700E5091710E6091720EDE
:104980007091730E88E39AE00E94126E4091740E4B
:104990005091750E6091760E7091770E85E39AE0D6
:1049A0000E94126E4091780E5091790E60917A0EAD
:1049B00070917B0E82E39AE00E94126E80E491E196
:1049C0006FE171E00E94CF1280E491E16AE00E9401
:1049D0009B11F8016491C8E6D9E007C080E491E139
:1049E0000E949B112196FE0164916623B9F7E4E2CF
:1049F000FAE06491EF0107C080E491E10E949B110D
:104A00002196FE0164916623B9F780E491E16AE0A2
:104A10000E949B11F8016491C8E6D9E007C080E4C8
:104A200091E10E949B112196FE0164916623B9F7E2
:104A30004091A0025091A1026091A2027091A30244
:104A40008AE19AE00E94126E6091A4027091A50220
:104A50008091A6029091A7020E948E50AB01BC01EA
:104A600087E19AE00E94126E6091A8027091A902FB
:104A70008091AA029091AB020E949C50AB01BC01B4
:104A800084E19AE00E94126E80E491E16FE171E0AE
:104A90000E94CF1280E491E16AE00E949B11F8012C
:104AA0006491C8E6D9E007C080E491E10E949B11BF
:104AB0002196FE0164916623B9F7E1E0FAE0649182
:104AC000EF0107C080E491E10E949B112196FE0155
:104AD00064916623B9F780E491E16AE00E949B113A
:104AE000F8016491C8E6D9E007C080E491E10E9432
:104AF0009B112196FE0164916623B9F74091A20EA5
:104B00005091A30E6091A40E7091A50E88EF99E0CC
:104B10000E94126E4091A60E5091A70E6091A80EB1
:104B20007091A90E85EF99E00E94126E4091AA0E35
:104B30005091AB0E6091AC0E7091AD0E82EF99E08A
:104B40000E94126E80E491E16FE171E00E94CF1249
:104B500080E491E16AE00E949B11F8016491C8E64B
:104B6000D9E007C080E491E10E949B112196FE01EB
:104B700064916623B9F7EFEDF9E06491EF0107C0A6
:104B800080E491E10E949B112196FE0164916623CD
:104B9000B9F780E491E16AE00E949B11F801649109
:104BA000C8E6D9E007C080E491E10E949B112196FC
:104BB000FE0164916623B9F74091D7025091D80263
:104BC0006091D9027091DA0286ED99E00E94126E2E
:104BD0004091DB025091DC026091DD027091DE02B7
:104BE00083ED99E00E94126E4091DF025091E00245
:104BF0006091E1027091E20280ED99E00E94126EF4
:104C000080E491E16FE171E00E94CF1280E491E1D4
:104C10006AE00E949B11F8016491C8E6D9E007C0E0
:104C200080E491E10E949B112196FE01649166232C
:104C3000B9F7E9EBF9E06491EF0107C080E491E195
:104C40000E949B112196FE0164916623B9F780E4CE
:104C500091E16AE00E949B11F8016491C8E6D9E0F5
:104C600007C080E491E10E949B112196FE016491AE
:104C70006623B9F74091E3025091E4026091E502A6
:104C80007091E60280EB99E00E94126E4091E7027B
:104C90005091E8026091E9027091EA028DEA99E090
:104CA0000E94126E4091EB025091EC026091ED0275
:104CB0007091EE028AEA99E00E94126E80E491E11E
:104CC0006FE171E00E94CF1280E491E16AE00E94FE
:104CD0009B11DF91CF911F910F9108950F931F9317
:104CE000DF93CF93CDB7DEB766970FB6F894DEBFEC
:104CF0000FBECDBF80911B0190911C01A0911D01A1
:104D0000B0911E018B8B9C8BAD8BBE8BFE013F96B1
:104D100004E610E0F999FECF12BD01BDF89A80B506
:104D200080830F5F1F4F0836110511F03196F2CFC7
:104D3000CE014396BE01615F7F4F43E050E00E9489
:104D4000DD0E009709F017C2EDE3F6E0F999FECF0A
:104D500012BD01BDF89A80B580830F5F1F4F0837E1
:104D6000110511F03196F2CFEDE2F6E0F999FECFA0
:104D700012BD01BDF89A80B580830F5F1F4F0838C0
:104D8000110511F03196F2CFEDE4F6E0F999FECF7E
:104D900012BD01BDF89A80B580830F5F1F4F08399F
:104DA000110511F03196F2CF0E94F52EE1E6F6E002
:104DB000F999FECF12BD01BDF89A80B580830F5FCF
:104DC0001F4F0C39110511F03196F2CFE5E6F6E0F0
:104DD000F999FECF12BD01BDF89A80B580830F5FAF
:104DE0001F4F003A110511F03196F2CFEDE5F6E0D4
:104DF000F999FECF12BD01BDF89A80B580830F5F8F
:104E00001F4F043A110511F03196F2CFE5E7F6E0B5
:104E1000F999FECF12BD01BDF89A80B580830F5F6E
:104E20001F4F083A110511F03196F2CFE9E2F6E092
:104E3000F999FECF12BD01BDF89A80B580830F5F4E
:104E40001F4F0C3A110511F03196F2CFE9E6F6E06A
:104E5000F999FECF12BD01BDF89A80B580830F5F2E
:104E60001F4F003B110511F03196F2CFEDE6F6E051
:104E7000F999FECF12BD01BDF89A80B580830F5F0E
:104E80001F4F043B110511F03196F2CFE1E7F6E038
:104E9000F999FECF12BD01BDF89A80B580830F5FEE
:104EA0001F4F083B110511F03196F2CFE0E7FEE00D
:104EB000F999FECF12BD01BDF89A80B580830F5FCE
:104EC0001F4F043C110511F03196F2CFFE013196CF
:104ED000F999FECF12BD01BDF89A80B580830F5FAE
:104EE0001F4F063C110599F7FE013396F999FECF45
:104EF00012BD01BDF89A80B580830F5F1F4F083C3B
:104F0000110511F03196F2CFFE013596F999FECFD9
:104F100012BD01BDF89A80B580830F5F1F4F0A3C18
:104F2000110511F03196F2CFFE013796F999FECFB7
:104F300012BD01BDF89A80B580830F5F1F4F0C3CF6
:104F4000110511F03196F2CFFE013996F999FECF95
:104F500012BD01BDF89A80B580830F5F1F4F0E3CD4
:104F6000110511F03196F2CFFE013B96F999FECF73
:104F700012BD01BDF89A80B580830F5F1F4F003DC1
:104F8000110511F03196F2CFE3EEF2E0F999FECF80
:104F900012BD01BDF89A80B580830F5F1F4F043D9D
:104FA000110511F03196F2CFE7EEF2E0F999FECF5C
:104FB00012BD01BDF89A80B580830F5F1F4F083D79
:104FC000110511F03196F2CFEBEEF2E0F999FECF38
:104FD00012BD01BDF89A80B580830F5F1F4F0C3D55
:104FE000110511F03196F2CFE0EAF2E0F999FECF27
:104FF00012BD01BDF89A80B580830F5F1F4F003E40
:10500000110511F03196F2CFE4EAF2E0F999FECF02
:1050100012BD01BDF89A80B580830F5F1F4F043E1B
:10502000110511F03196F2CFE8EAF2E0F999FECFDE
:1050300012BD01BDF89A80B580830F5F1F4F083EF7
:10504000110511F03196F2CFFE013D96F999FECF90
:1050500012BD01BDF89A80B580830F5F1F4F0A3ED5
:10506000110511F03196F2CFE2EAFEE0F999FECF98
:1050700012BD01BDF89A80B580830F5F1F4F0E3EB1
:10508000110511F03196F2CFE7EDF2E0F999FECF7C
:1050900012BD01BDF89A80B580830F5F1F4F023F9C
:1050A000110511F03196F2CFE6EAFEE0F999FECF54
:1050B00012BD01BDF89A80B580830F5F1F4F063F78
:1050C000110511F03196F2CFEBEDF2E0F999FECF38
:1050D00012BD01BDF89A80B580830F5F1F4F0A3F54
:1050E000110511F03196F2CFEAEAFEE0F999FECF10
:1050F00012BD01BDF89A80B580830F5F1F4F0E3F30
:10510000110511F03196F2CFEFEDF2E0F999FECFF3
:1051100012BD01BDF89A80B5808381E00130180787
:1051200021F00F5F1F4F3196F1CF0E94974FE8E6B5
:10513000F9E064918F0108C080E491E10E949B1125
:105140000F5F1F4FF80164916623B1F7E0E9F9E0C2
:1051500064918F0108C080E491E10E949B110F5F70
:105160001F4FF80164916623B1F780E491E16AE092
:105170000E949B1104C00E9491200E946E1D0E94FB
:10518000742266960FB6F894DEBF0FBECDBFCF91E6
:10519000DF911F910F91089580912406882399F142
:1051A00040911E0450911F046091200470912104CD
:1051B000809122069091230622E234E00E94B04DB5
:1051C000882319F140912506509126066091270603
:1051D00070912806411551056105710591F0809186
:1051E00022069091230622E234E00E94B04D8823EB
:1051F00061F0109225061092260610922706109252
:1052000028061092240681E0089580E00895DF9238
:10521000EF92FF920F931F937B018C01D42E80910C
:105220001E0490911F04A0912004B09121048E15BA
:105230009F05A007B107C1F00E94CC288823E1F0A8
:105240008091220690912306B801A70122E234E062
:105250000E948C4E882381F0E0921E04F0921F047D
:105260000093200410932104DD2011F481E005C097
:1052700081E08093240601C080E01F910F91FF9090
:10528000EF90DF9008958F929F92AF92BF92CF924E
:10529000DF92EF92FF920F931F93CF93DF936C01F6
:1052A000142F7093230660932206FC01178A82E074
:1052B00090E0A0E0B0E080839183A283B38310925A
:1052C00024061092250610922606109227061092A8
:1052D00028068FEF9FEFAFEFBFEF80931E049093F0
:1052E0001F04A0932004B0932104442321F48824B4
:1052F0009924540140C0453008F01EC160E070E0C0
:1053000080E090E040E00E940729882309F414C15E
:10531000C12FD0E02197FE0174E0EE0FFF1F7A95B8
:10532000E1F7EE5DFB4FE254FE4F8081EE5BF14012
:1053300090E08F779070892B09F0FEC0E653FE4F06
:1053400080819181A281B38184369105A105B10547
:1053500008F4F2C064E0CC0FDD1F6A95E1F7C85194
:10536000DA4F88809980AA80BB8081149104A104BF
:10537000B10409F4E1C0C501B40140E00E9407296D
:10538000882309F4D9C080912D0490912E04805077
:10539000924009F0D1C020913204222309F4CCC0FC
:1053A0008091300490913104892B09F4C5C080911B
:1053B0002F04882309F4C0C0F601228B80912F04AA
:1053C0008483158661E070E007C04F5FF601458772
:1053D0004150483008F0B0C0F6014585848190E026
:1053E0009B01042E02C0220F331F0A94E2F782179A
:1053F000930759F72091380430913904211531056C
:1054000019F040E050E008C0209146043091470474
:105410004091480450914904F6012583368347831F
:105420005087E0903004F090310400E010E0E80C88
:10543000F91C0A1D1B1DE38AF48A058B168B8091CB
:10544000330490913404918F808F6091320470E026
:1054500080E090E00E941DAF6E0D7F1D801F911FA8
:10546000F601628F738F848F958F20913304309172
:10547000340455E0220F331F5A95E1F721503E4F77
:10548000232F3327269540E050E0260F371F481F73
:10549000591F26873787408B518B80913504909117
:1054A0003604009719F0A0E0B0E008C080914204F3
:1054B00090914304A0914404B09145048501740186
:1054C000E21AF30A040B150BA8019701280F391FE4
:1054D0004A1F5B1FF601058404C056954795379512
:1054E00027950A94D2F72187328743875487253F2F
:1054F000FFE03F07F0E04F07F0E05F0720F48CE0AB
:10550000F601878B19C0255F3F4F4040504018F48B
:1055100080E1F6010EC080914E0490914F04A0915D
:105520005004B0915104F601828F938FA48FB58FF0
:1055300080E2878B81E001C080E0DF91CF911F91F5
:105540000F91FF90EF90DF90CF90BF90AF909F9022
:105550008F9008956F927F928F929F92AF92BF9299
:10556000CF92DF92EF92FF920F931F93CF93DF932F
:10557000EC015A016B0138014901423051056105C6
:10558000710508F45EC089859A85AB85BC85019656
:10559000A11DB11D84179507A607B70708F451C0D0
:1055A0008F89803129F4E52EF62E072F11270CC0A4
:1055B000803209F046C07A018B0187E01695079585
:1055C000F794E7948A95D1F78B899C89AD89BE8938
:1055D000E80EF91E0A1F1B1FC801B70141E00E9417
:1055E0000729882371F18F89803149F4F501F07022
:1055F000EE0FFF1FEE5DFB4F718260820DC0F50163
:10560000EF77F070EE0FFF1FEE0FFF1FEE5DFB4F09
:1056100060827182828293828A89823080F08D8159
:105620009E81AF81B885E80EF91E0A1F1B1FE0920C
:105630002506F0922606009327061093280681E09F
:1056400001C080E0DF91CF911F910F91FF90EF900B
:10565000DF90CF90BF90AF909F908F907F906F9092
:105660000895CF92DF92EF92FF920F931F93CF9303
:10567000DF93EC017A018B01690189859A85AB85FD
:10568000BC850196A11DB11D84179507A607B70714
:1056900008F453C08F89803129F45527412F302FCA
:1056A0002F2D0CC0803209F048C09A01AB0167E091
:1056B00056954795379527956A95D1F78B899C899B
:1056C000AD89BE89280F391F4A1F5B1F80911E04B8
:1056D00090911F04A0912004B0912104281739074C
:1056E0004A075B0739F0CA01B90140E00E94072967
:1056F000882319F18F89803159F4F701F070EE0F8A
:10570000FF1FEE5DFB4F80819181A0E0B0E00EC0F5
:10571000F701EF77F070EE0FFF1FEE0FFF1FEE5D4A
:10572000FB4F80819181A281B381BF70F60180839C
:105730009183A283B38381E001C080E0DF91CF91A8
:105740001F910F91FF90EF90DF90CF900895AF924F
:10575000BF92CF92DF92EF92FF920F931F93DF934E
:10576000CF9300D000D0CDB7DEB76C017A018B01AA
:1057700082E090E0A0E0B0E0F60180839183A28314
:10578000B3835E010894A11CB11CC601B801A70136
:1057900095010E94312B882341F1C601B801A70170
:1057A00000E010E020E030E00E94AA2A8823E9F01F
:1057B000E980FA800B811C81F6018789803151F4E0
:1057C000F8EFEF16FFEFFF06F0E00F07F0E01F071E
:1057D000E0F209C088EFE8168FEFF8068FEF0807B0
:1057E0008FE0180790F281E001C080E00F900F90E9
:1057F0000F900F90CF91DF911F910F91FF90EF903D
:10580000DF90CF90BF90AF9008954F925F926F92CC
:105810007F928F929F92AF92BF92CF92DF92EF9240
:10582000FF920F931F93DF93CF9300D000D0CDB79B
:10583000DEB76C0149835A836B837C833901EE2484
:10584000FF2487012E010894411C511C812CE2E0A9
:105850009E2EA12CB12C49815A816B817C81C6017D
:1058600092010E94312B882339F1D501C401F60140
:10587000058404C0880F991FAA1FBB1F0A94D2F782
:10588000E80EF91E0A1F1B1F29813A814B815C819A
:105890008789803131F4285F3F4F40405040D8F233
:1058A00005C0285F3F4F4F4F5F40A8F2F301E082F1
:1058B000F1820283138381E00F900F900F900F907D
:1058C000CF91DF911F910F91FF90EF90DF90CF90DC
:1058D000BF90AF909F908F907F906F905F904F9010
:1058E00008952F923F924F925F926F927F928F9284
:1058F0009F92AF92BF92CF92DF92EF92FF920F935F
:105900001F93DF93CF93CDB7DEB72F970FB6F894E1
:10591000DEBF0FBECDBF1C014A875B876C877D87CA
:105920003F872E87DC0119968D919D910D90BC913A
:10593000A02D0196A11DB11D8E839F83A887B987D5
:10594000F9010081118122813381011511052105A1
:10595000310549F0480159010894811C911CA11C92
:10596000B11C1D8210C0D1018D909D90AD90BC9056
:105970001D828A859B85AC85BD850197A105B105F2
:1059800011F491E09D837501640144245524320192
:105990008E010F5F1F4FF10181859285A385B4852C
:1059A000481659066A067B0608F090C08E819F81D2
:1059B000A885B9858C159D05AE05BF0550F4A2E0FC
:1059C0008A2E912CA12CB12CF2E0CF2ED12CE12CDF
:1059D000F12CC101B701A60198010E94312B882347
:1059E00009F474C089819A81AB81BC81A7019601B9
:1059F0002F5F3F4F4F4F5F4F0097A105B10519F043
:105A000049015A010DC0281939094A095B098A85DB
:105A10009B85AC85BD85281739074A075B0759F078
:105A20000894411C511C611C711C0894C11CD11CA0
:105A3000E11CF11CB0CFC101A601B7010FEF1FEFB0
:105A40002FEF3FE00E94AA2A882399F43FC0260145
:105A5000370108944108510861087108C101B30178
:105A6000A201970186010E94AA2A882379F1730175
:105A700062018C149D04AE04BF0448F3AE85BF855B
:105A80004D915D916D917C914115510561057105B7
:105A900039F0C101950184010E94AA2A8823B1F03E
:105AA000EE85FF8580829182A282B382FD81FF23F1
:105AB00059F00894811C911CA11CB11CD1018D923C
:105AC0009D92AD92BC92139781E001C080E02F9629
:105AD0000FB6F894DEBF0FBECDBFCF91DF911F91FF
